:100000000C9451050C946E050C946E050C946E05C1
:100010000C946E050C946E050C946E050C946E0594
:100020000C946E050C94800A0C946E050C946E056D
:100030000C946E050C94C6090C946E050C946E0518
:100040000C9449090C946E050C946E050C946E0585
:100050000C946E050C946E050C946E050C946E0554
:100060000C946E050C946E050C946E050C946E0544
:10007000000000000000003E4551453E003E6B6F11
:100080006B3E001C3E7C3E1C00183C7E3C18003041
:10009000367F363000185C7E5C18000000000000DF
:1000A0000000000000000000000000000000000050
:1000B00000000030484A360E000629792906000063
:1000C0000000000000607E0A353F002A1C361C2A12
:1000D00000007F3E1C0800081C3E7F000014367F95
:1000E000361400005F005F000006097F017F0022D8
:1000F0004D5559220060606060000014B6FFB614D0
:100100000004067F06040010307F30100008083E0F
:100110001C0800081C3E08080078404040400008C9
:100120003E083E0800303C3F3C3000030F3F0F03C9
:100130000000000000000000065F0600000703004A
:10014000070300247E247E2400242B6A120000630F
:10015000130864630036495620500000070300006E
:1001600000003E4100000000413E000000083E1C2F
:100170003E080008083E08080000E0600000000893
:100180000808080800006060000000201008040251
:10019000003E5149453E0000427F40000062514907
:1001A0004946002249494936001814127F10002F91
:1001B00049494931003C4A49493000017109050368
:1001C00000364949493600064949291E00006C6C31
:1001D00000000000EC6C0000000814224100002424
:1001E0002424242400004122140800020159090695
:1001F000003E415D551E007E1111117E007F494970
:100200004936003E41414122007F4141413E007F4D
:1002100049494941007F09090901003E4149497A9C
:10022000007F0808087F0000417F41000030404007
:10023000403F007F08142241007F40404040007F43
:100240000204027F007F0204087F003E4141413EDC
:10025000007F09090906003E4151215E007F09091E
:1002600019660026494949320001017F0101003F1A
:100270004040403F001F2040201F003F403C403F87
:1002800000631408146300070870080700714945EB
:10029000430000007F4141000002040810200000DC
:1002A00041417F0000040201020480808080808040
:1002B000000003070000002054545478007F444499
:1002C000443800384444442800384444447F0038CB
:1002D0005454540800087E0909000018A4A4A47C02
:1002E000007F040478000000007D4000004080840E
:1002F0007D00007F102844000000007F4000007C4B
:1003000004180478007C040478000038444444381D
:1003100000FC444444380038444444FC00447844DD
:10032000040800085454542000043E442400003CB7
:1003300040207C00001C2040201C003C6030603CC1
:10034000006C10106C00009CA0603C0000645454D1
:100350004C0000083E414100000000770000000012
:1003600041413E08000201020100003C2623263CD8
:10037000001EA1E12112003D40207D0000385454B0
:1003800055090020555555780020555455780020C2
:1003900055555478002057555778001CA2E2221476
:1003A00000385555550800385554550800385555EE
:1003B00054080000017C41000000017D4100000064
:1003C000017C400000702924297000782F252F78A7
:1003D000007C545455450034547C5458007E097FA9
:1003E000494900384545390000384544390000394D
:1003F00045443800003C41217D00003D41207C0007
:10040000009CA1603D00003D42423D00003C414057
:100410003D0080706858380400483E494962007EBB
:10042000615D433F0022140814220040887E0902C7
:100430000020545555780000007D410000384445A7
:100440003900003C40217D00007A090A7100007AE1
:100450001122790000085555555E004E51514E004D
:100460000030484D40203E415D4B553E040404049D
:10047000041C0017084C6A50001708342A78000042
:10048000307D30000008140008140014080014081F
:10049000441144114411AA55AA55AA55BBEEBBEE0E
:1004A000BBEE000000FF0000080808FF000000701D
:1004B00028252970007029252970007029252870A9
:1004C0003E415D55413E0AFB00FF000000FF00FF7A
:1004D00000000AFA02FE00000A0B080F00000018D4
:1004E0002466240000292A7C2A29080808F800002C
:1004F0000000000F08080808080F0808080808F896
:100500000808000000FF080808080808080808088C
:1005100008FF080800205655567900702A252A71D0
:10052000000F080B0A0A00FE02FA0A0A0A0B080B5F
:100530000A0A0AFA02FA0A0A00FF00FB0A0A0A0A71
:100540000A0A0A0A0AFB00FB0A0A005D2222225D4F
:1005500000225559300000087F49413E007C555526
:100560005544007C55545544007C55555444000076
:10057000000700000000447D45000000457D450067
:100580000000457C45000808080F0000000000F846
:100590000808FFFFFFFFFFFFF0F0F0F0F0F00000B1
:1005A000007700000000457D44000F0F0F0F0F0F74
:1005B000003C42433D0000FE4A4A3400003C4343B5
:1005C0003D00003D43423C000032494A3100003AC0
:1005D0004546390000FC20201C0000FEAA2810001F
:1005E00000FFA5241800003C40413D00003C414173
:1005F0003D00003D41403C00009CA0613D000004E6
:100600000871090400000202020000000703000054
:100610000000080808000000242E240000242424E0
:10062000242405170A342A780006097F017F002256
:100630004D5559220008082A08080000081818001B
:100640000006090906000000080008000000080074
:10065000000000020F00000000090F050000000963
:100660000D0A0000003C3C3C3C0000000000000083
:1006700000000080FF03F0FF1FF8FF3F7C007C1CA0
:1006800000700E00E00E00E00E00E00E00E00E0034
:10069000E01C00707C007CF8FF3FF0FF1F80FF0330
:1006A00000000000000000000000000000000070DA
:1006B00000E07000E07000E07800E0FCFFFFFEFF6B
:1006C000FFFEFFFF0000E00000E00000E00000E0AF
:1006D0000000000000000000000000003C00F01CD2
:1006E00000F81C00FC0E00EE0E00EF0E80E70EC0BE
:1006F000E30EE0E11EF0E03C7CE0FC1FE0F80FE0E0
:10070000F003E00000E00000000000000000000036
:1007100000783C00701C00701C00E00E00E00E1C15
:10072000E00E1CE00E1CE00E1CE00E3E701C777804
:10073000FCF33FF8E11FF0C00F00000000000000D4
:10074000F00000F80000EE0000E70080E300C0E1E8
:1007500000E0E00070E00018E0000CE000FEFFFFA9
:10076000FEFFFFFEFFFF00E00000E00000E00000F1
:100770000000000000000078FE3F70FE3FF0FE1F0A
:10078000E00E1CE00E1CE00E1CE00E1CE00E1CE057
:100790000E3C700E78780EF83F0EF01F0EC007006A
:1007A000000000000000FE03C0FF1FE0FF3FF81C38
:1007B0007C380C701C0EF01C0EE00E0EE00E0EE0ED
:1007C0000E0EE00E1E700E3C781EFC3F00F81F005F
:1007D000E0070000000000000000000E00000E0016
:1007E000800E00E00E00F00E007C0E001F0EC00F09
:1007F0000EE0030EF8000E3E008E1F00CE0700FE36
:1008000001007E00003E000000000000800FF0C1EB
:100810003FF8E37FFC77781C3FF00E1EE00E1CE0F3
:100820000E1CE00E18E00E38E01C3CF0FC7778F867
:10083000E73FF0C11F00800F000000000000C00F64
:1008400000F03F00F87FF03C78E01CF0E00EE0E0C4
:100850000EE0E00EE0E00EE0701EE0701C60387C00
:10086000703EF8FF0FF0FF0780FF0000000000005F
:100870000000000000000000000000000000000078
:10088000F0001EF0001EF0001EF0001E0000000030
:100890000000000000000000000000000000000058
:1008A0000000000000000000000000000000000048
:1008B00000000038000000000000403C0000000084
:1008C0000000E0B9010000000000E0DB01000000D2
:1008D0000000E0DB010000000000C0FF030000009A
:1008E000000000FC1F0000000000C0FF3F000000EF
:1008F0000000E0FF3F0000000000E0DF3F000000DC
:100900000000C0DD1F000000000000FE0F0000001E
:10091000000000F007000000000000F0FF030000EE
:10092000000000F8FF1F0000000000F8FF7F00003B
:10093000000000FEFFFF0000000080FFFFFF01003D
:100940000000FCFFFFFF03000080FFFFFFFF070028
:100950000080FFFFFFFF0F0000C0FFFFFFFF0F0041
:1009600000E0FFFFFFFF1F0000F0FFFFFFFF1F0081
:1009700000F8FFFFFFFF3F0000FCFFE7FFFF3F0025
:1009800000FEFFFBFFFF7F7800FEFFFFFFFF7FFE03
:10099000007EF8FDBFFFFFFF007EF8F13FFFFFFF85
:1009A00000BCFBC03FFEFFFF043C7AFE3FFCFFFFA4
:1009B0000E7C78BF07F8FFFF0FFC3F9ECDFFFFF7CF
:1009C00007FC1FCEFDFFFFF003FC0FC0F9FFFFF097
:1009D000FFFC07C0F9FF7FFEFFFC0380F89F7FDE6E
:1009E000F3FC0000FE817FEE06380000FF89FFF077
:1009F0001E000000FF9FFFF03E000000FEBFFF70E2
:100A00003E000000F8997F701E100000FEC77F00B6
:100A1000081000006FDF7F0000200080EFDE7F0005
:100A200000600080F7FC3F0000400000F3EC3F0056
:100A300000C00000F0F03F0000800100F0F01F0057
:100A40000080030060F81F000000070000FC0F009A
:100A500000001E0000FE070000003C0000FF070031
:100A60000000F800C0FF03000000F003F0FF0000EA
:100A70000000E0FFFF7F0000000080FFFF3F00005C
:100A8000000000FFFF0F0000000000F8FF01000061
:100A9000000000801F0000000000000000000000B7
:100AA000000011241FBECFEFD0E1DEBFCDBF15E0A7
:100AB000A0E0B1E0E6EFF1E502C005900D92AC3C9C
:100AC000B107D9F71CE0ACECB5E001C01D92A73727
:100AD000B107E1F70E94380C0C94F9280C9400003F
:100AE0001092DD051092DE051092DC050895049940
:100AF00017C08091CC058A3020F48F5F8093CC059D
:100B000026C09091DE058091DD0590FD05C08160D5
:100B10008093DD05916019C08E7F8093DD0517C03D
:100B20008091DD058E7F8093DD059091DE058091BB
:100B3000DC0590FF06C081608093DC051092CC0537
:100B400003C08E7F8093DC059E7F9093DE05059920
:100B500017C08091CC058A3020F48F5F8093CC053C
:100B600026C09091DE058091DD0591FD05C0826073
:100B70008093DD05926019C08D7F8093DD0517C0DD
:100B80008091DD058D7F8093DD059091DE0580915C
:100B9000DC0591FF06C082608093DC051092CC05D5
:100BA00003C08D7F8093DC059D7F9093DE050799C0
:100BB00017C08091CC058A3020F48F5F8093CC05DC
:100BC00026C09091DE058091DD0592FD05C0846010
:100BD0008093DD05946019C08B7F8093DD0517C07D
:100BE0008091DD058B7F8093DD059091DE058091FE
:100BF000DC0592FF06C084608093DC051092CC0572
:100C000003C08B7F8093DC059B7F9093DE05069964
:100C100017C08091CC058A3020F48F5F8093CC057B
:100C200008959091DE058091DD0593FD05C08860F3
:100C30008093DD05986019C0877F8093DD05089556
:100C40008091DD05877F8093DD059091DE058091A1
:100C5000DC0593FF06C088608093DC051092CC050C
:100C600003C0877F8093DC05977F9093DE0508950E
:100C700021E030E002C0220F331F8A95E2F7809115
:100C8000DD058223089521E030E002C0220F331FEA
:100C90008A95E2F78091DC058223089521E030E017
:100CA00002C0220F331F8A95E2F78091DE0582236E
:100CB00008958FED95E060E070E04DE250E00E9415
:100CC000FA278091DF058C3E09F083C08091E00512
:100CD000803C09F07EC080910A06803E09F079C010
:100CE00080910B068E3009F074C0AAE7BBE0EBEEF2
:100CF000F5E085E001900D928150E1F7A2E8BBE0BC
:100D0000E6EEF5E085E001900D928150E1F7ACEA66
:100D1000BBE0E1EEF5E085E001900D928150E1F756
:100D2000A7E8BBE0EAEFF5E085E001900D92815085
:100D3000E1F7A8E5BCE0E5EFF5E085E001900D9274
:100D40008150E1F7A7EABBE0E0EFF5E085E0019034
:100D50000D928150E1F7A7EEBBE0EFEFF5E083E005
:100D600001900D928150E1F7AFE7BBE0E2E0F6E0E1
:100D700083E001900D928150E1F7A0E6B6E0E5E056
:100D8000F6E083E001900D928150E1F78091080632
:100D900086FF0CC090916C06906490936C0685FF62
:100DA00005C090916C06906290936C069091090634
:100DB0009093680680FF02C080E007C081FF02C0F8
:100DC00081E003C082FF07C082E00E948A1481E0B4
:100DD000089580E0089581E008958CEE8093DF050A
:100DE00080EC8093E00580EE80930A068EE080938D
:100DF0000B06ABEEB5E0EAE7FBE085E001900D9273
:100E00008150E1F7A6EEB5E0E2E8FBE085E0019075
:100E10000D928150E1F7A1EEB5E0ECEAFBE085E050
:100E200001900D928150E1F7AAEFB5E0E7E8FBE011
:100E300085E001900D928150E1F7A5EFB5E0E8E57E
:100E4000FCE085E001900D928150E1F7A0EFB5E064
:100E5000E7EAFBE085E001900D928150E1F7AFEF0A
:100E6000B5E0E7EEFBE083E001900D928150E1F701
:100E7000A2E0B6E0EFE7FBE083E001900D92815045
:100E8000E1F7A5E0B6E0E0E6F6E083E001900D9240
:100E90008150E1F71092080680916C0685FF03C02F
:100EA00080E28093080680916C0686FF05C08091E1
:100EB00008068064809308068091D70580FF05C0EE
:100EC000809108068160809308068091D70581FF94
:100ED00005C0809108068260809308068091D7053E
:100EE00082FF05C080910806846080930806809187
:100EF0006806809309068FED95E060E070E04DE2B2
:100F000050E00E940A28089510925F0680915F06C3
:100F1000826080935F0680E090E0FC01E45FF94F1F
:100F2000108201968C339105C1F7109248060895FE
:100F300010925E0680914706823049F080910C063F
:100F4000882329F080911F06813009F05CC1E0E020
:100F500001C0E82F8E2F8F5FF0E0A82FB0E0A45FD4
:100F6000B94F9C91E75BF94F90838E3091F7809158
:100F70001C06813031F480915E068260E9E4F6E07F
:100F8000858B1092570680E090E025E130E0FC016F
:100F9000EF5DF94F4081433049F04081423031F0FC
:100FA000408134272F5F01962C3189F780912806E4
:100FB0003817C1F52C31B1F5E09121069091260644
:100FC00060912706F0912306209124064091250682
:100FD000309122068AE0989FC001112454E1659F58
:100FE000B0011124860F971F830F911D35E0439F99
:100FF000A0011124840F951F30E0220F331F2F0F03
:10100000311D220F331F820F931F880F8E0F809385
:101010005706809157068C3328F480915E068860CD
:1010200080935E061092580680E090E02DE130E05B
:10103000FC01E75DF94F4081433049F04081423087
:1010400031F0408134272F5F0196233289F7809158
:101050002F06381781F5233271F56091290690919A
:101060002E0670912B0620912C0650912D06309162
:101070002A068AE0989FC001112445E0549FA001F0
:101080001124840F951F830F911D30E0220F331F11
:10109000270F311D220F331F820F931F880F860FDA
:1010A0008093580680915806883128F480915E0616
:1010B000806180935E061092590610925A06109233
:1010C0005D0610925C0610925B0680E090E0FC01E9
:1010D000E05DF94F2081233041F02081223029F05A
:1010E000208101968631910591F7E091300680913B
:1010F0003506F09132062091330660913406309126
:1011000031065AE0859FC001112445E0649FB0017B
:101110001124860F971F830F911D30E0220F331F7C
:101120002F0F311D220F331F820F931F880F8E0F39
:101130008093590620913606809138063091370603
:1011400090E0880F991F830F911D880F820F809365
:101150005A066091390670913B0680913C062091B9
:101160003D0690913A06249F90011124290F311DCC
:1011700090E0880F991F870F911D880F991F280FE6
:10118000391F220F260F20935B06A0913E069091F7
:101190004506E091430660914406B09140062091D7
:1011A00041063091420670913F0688E2989FC00147
:1011B0001124E59FF00111248E0F9F1F870F911DB1
:1011C00054E1659FB0011124860F971F349FA00141
:1011D0001124840F951F30E0220F331F2B0F311D78
:1011E000220F331F820F931F880F991F8A0F911DA3
:1011F00090935D0680935C0680915E06806280938A
:101200005E0681E0089580E00895982F94509A3109
:1012100038F4E0914806F0E0E45FF94F10821BC01B
:101220008F3138F0E0914806F0E0E45FF94F81E05B
:1012300011C0833048F4E0914806F0E0E45FF94FD4
:1012400082E0808381E008C0E0914806F0E0E45F3E
:10125000F94F83E0808380E0909148069F5F9093F0
:101260004806882379F0809148068B3349F40E9420
:101270009807882329F080916C06846080936C061F
:1012800010924806809148068B3310F01092480661
:1012900008951F920F920FB60F9211242F933F9330
:1012A0004F935F936F937F938F939F93AF93BF936E
:1012B000EF93FF930E94DB2480916C0680FF11C0A6
:1012C00080911D01882369F48091690660916A0606
:1012D00040916B060E945E1780916C068E7F809312
:1012E0006C068FEF8BB980911D01813039F0813010
:1012F000B8F0823049F0833031F50CC08091D105CF
:101300000E94751258981FC08091D1050E949A12B0
:10131000599819C08091D1050E94BF125A9813C0E4
:101320000E94FA11882329F02A9A0E94D6102A983E
:101330000AC08091D70582FF06C08091D1058A300E
:1013400011F40E94F1148091D1058F5F8093D10533
:10135000803159F41092D10580911D018F5F8093E7
:101360001D01843011F410921D01FF91EF91BF9186
:10137000AF919F918F917F916F915F914F913F912D
:101380002F910F900FBE0F901F9018951F920F92E4
:101390000FB60F9211242F933F934F935F936F9348
:1013A0007F938F939F93AF93BF93EF93FF9380911E
:1013B0001C018F5F80931C01843609F05EC0809110
:1013C0006B06825E80936B0680916B068C33E8F12E
:1013D00010926B0680916C06886080936C068091F9
:1013E0006A06865F80936A0680916C0685FF1CC042
:1013F000809167068F5F80936706809167068530CE
:1014000099F480916C068F7780936C0680916C06BE
:1014100086FD05C080916C068F7D80936C0681E00F
:101420008093D0050E94C62480916A068C3368F0B0
:1014300010926A06809169068F5F80936906809199
:101440006906873110F01092690680916C06816000
:1014500080936C0610921C018091D005882369F05E
:1014600081508093D005882341F480916C0681FDE2
:1014700004C08091750C80FF129880916C0685FFE6
:1014800022C090916906809160069817E1F49091CE
:101490006A06809161069817B1F490916B0680916D
:1014A0006206981781F40E94CC24882361F410927C
:1014B000670680916C06806880936C068091680650
:1014C00061E00E94AA24049B06C0059B04C0069B01
:1014D00002C0079904C085E08093D005129AFF915D
:1014E000EF91BF91AF919F918F917F916F915F919C
:1014F0004F913F912F910F900FBE0F901F90189515
:101500001F920F920FB60F9211240F931F932F93D8
:101510003F934F935F936F937F938F939F93AF937B
:10152000BF93EF93FF93DF93CF93CDB7DEB72F97A2
:10153000DEBFCDBF019B13C08091CF058F5F80932D
:10154000CF0580911B018C53813548F08091B0000C
:10155000863028F08091B00085508093B000809153
:101560001B0180FF7FC013980E94770580916C0655
:1015700087FF23C082E00E943806882371F483E04D
:101580000E943806882349F40E943806882329F4EB
:1015900081E00E943806882381F080916C068F7765
:1015A00080936C0680916C0686FD05C080916C0668
:1015B0008F7D80936C060E94C62480916C0681FF0B
:1015C00045C080E00E943806882329F01092CE059D
:1015D0000E94CC2019C081E00E943806882329F09F
:1015E0001092CD050E94871F0FC082E00E9438062E
:1015F000882319F00E941E2207C083E00E9438064B
:10160000882311F00E94251D80E00E944E06882349
:1016100061F08091CE058F5F8093CE05823311F506
:101620001092CE050E94CC201DC081E00E944E0683
:101630008823C1F08091CD058F5F8093CD058233E3
:1016400089F41092CD050E94871F0CC082E00E9491
:101650003806882339F00E94771880916C068260E2
:1016600080936C0680911B018F5F80931B01883CE7
:1016700009F0E6C080916C0681FD3EC080916C0649
:1016800083FF3AC03091690620916A068DB79EB7F4
:1016900008970FB6F8949EBF0FBE8DBFEDB7FEB78B
:1016A00031968E010F5F1F4FADB7BEB712961C93D8
:1016B0000E93119780E091E09383828334831582A7
:1016C000268317820E94F0252DB73EB7285F3F4F33
:1016D0000FB6F8943EBF0FBE2DBF84E160E00E94BC
:1016E000560EC80160E00E94F40D0E940E0D80911C
:1016F0006C06877F80936C0680916C0682FF98C091
:1017000080915E0684FF40C080915E0683FF3CC0EE
:101710008091690630916A0624E6829FC0011124F7
:10172000830F911D3091580640915706329F9001CA
:101730001124240F311D40915E0641FF03C048EC87
:1017400050E002C040E050E0281B390B4B5F5F4F78
:101750002417350720F080916C0684FF15C0809116
:101760005806809369068091570680936A0681E047
:1017700080936B0680916C06886080936C068091E4
:101780006C068F7E80936C0680915E0685FF4BC051
:10179000809159068093630680915B06809364066E
:1017A00080915C0690915D068053984F90936606F9
:1017B00080936506509163064091640680916506AA
:1017C00090916606ADB7BEB71A970FB6F894BEBF34
:1017D0000FBEADBFEDB7FEB731968E010F5F1F4F45
:1017E00012961C930E9311972BE031E033832283E2
:1017F0005483158246831782918780870E94F02543
:101800002DB73EB7265F3F4F0FB6F8943EBF0FBED1
:101810002DBF82E264E00E94560EC80160E00E9483
:10182000DD0D0E940E0D80916C068B7F80936C06FF
:101830008091CF050E94050910921B011092CF05DF
:101840002F96DEBFCDBFCF91DF91FF91EF91BF917A
:10185000AF919F918F917F916F915F914F913F9148
:101860002F911F910F910F900FBE0F901F90189501
:101870008DE081B98FEB84B983EC87B98FEF8AB99A
:1018800012B884E085B918B837E03BB922E024BD2E
:1018900083E085BD81E387BD20936E008AE080935D
:1018A000810088EA91E690938900809388002093D4
:1018B0006F002093B0003093B10082E68093B300B4
:1018C0002093700010926C061092690610926A06BE
:1018D00010926B061092620610926006E0E6F6E047
:1018E0001182109268061092670610926306109299
:1018F000640610926606109265060E949C0F0E9474
:10190000C10C0E940E0D0E943112129A8FE794E8CA
:10191000AEE181509040A040E1F700C000000E947D
:10192000E4120E94D2138091690660916A06409188
:101930006B060E945E1780916C06886080936C062F
:101940000E9484070E9431180E94A5240E94590613
:10195000882359F081E00E946514809169066091A6
:101960006A0640916B060E945E1780916C0680614A
:1019700080936C060E94C10C0E940E0D1298789400
:10198000FFCF80E0E82FF0E093E0EE0FFF1F9A9585
:10199000E1F7E359F94F1082118212821382148207
:1019A0001582168217828F5F803861F710928C0A39
:1019B00010928D0A089580E090E0FC0123E0EE0F84
:1019C000FF1F2A95E1F7E359F94F10821182128225
:1019D0001382148215821682178201968034910533
:1019E00061F7089580E490E00FC0FA01E20FF31F61
:1019F000E359F94F10822F5F3F4F28303105A9F787
:101A000001968038910549F020E030E0AC0163E0B8
:101A1000440F551F6A95E1F7E8CF089580916D0A4C
:101A200080FF04C080916D0A806103C080916D0ABF
:101A3000816080936D0A80916D0A81FF04C080915E
:101A40006D0A806203C080916D0A826080936D0A86
:101A5000089580916D0A80FF04C080916D0A8061B5
:101A600003C080916D0A816080936D0A0895809112
:101A70006D0A81FF04C080916D0A806203C080916D
:101A80006D0A826080936D0A08952091D20530E03E
:101A9000F901EE0FFF1FE20FF31FE259F54F6183CB
:101AA0002091D20530E0F901EE0FFF1FE20FF31F86
:101AB000E259F54F80838091D20590E0FC01EE0F52
:101AC000FF1FE80FF91FE259F54F42838091D205BD
:101AD0008F5F8093D2058091D2058A3010F01092EA
:101AE000D2058091D20590E0FC01EE0FFF1FE80FB8
:101AF000F91FE259F54F11820895E0918C0AF0E048
:101B000090918D0A23E0EE0FFF1F2A95E1F7E90F70
:101B1000F11DE359F94F808380918C0A8F5F809388
:101B20008C0A80918C0A87FF0DC010928C0A8091DC
:101B30008D0A8F5F80938D0A80918D0A883010F016
:101B400010928D0A0895EF92FF920F931F93CF93F7
:101B5000DF93E62E20918C0A30E02A3731056CF0B5
:101B600010928C0A90918D0A9F5F90938D0A9091AC
:101B70008D0A983010F010928D0A96E0899FE0014E
:101B80001124C059DF4F8E01FF24EE2021F0FE0109
:101B90008491809502C0F80184910E947D0DF39498
:101BA00021960F5F1F4FFF2DF63079F7DF91CF9110
:101BB0001F910F91FF90EF9008950F931F93CF9374
:101BC000DF93EC01062F10E004C0602F0E94A30DEC
:101BD0001F5FFE01E10FF11D80818823B1F7DF91C6
:101BE000CF911F910F910895DF92EF92FF920F9383
:101BF0001F93CF93DF93A0918D0A00918C0A10E080
:101C000044C02B30F0F743E3249F90011124205966
:101C1000394F60E070E0B0E0ED012196F2E0EF2E88
:101C2000F12CEA0EFB1E402F460F50E0F901D49034
:101C3000E3E0440F551FEA95E1F7FA01EA0FFB1FB5
:101C4000E359F94FD082F9013196D490FA01EC0FA3
:101C5000FD1FE359F94FD082F9013296D4904E0D11
:101C60005F1D4359594FFA01D0826F5F7F4F2D5F3F
:101C70003F4F61317105B9F60F5EA0918D0A209139
:101C80008C0A205F20938C0A1F5FFC01E10FF11D7D
:101C90003081232F2053332309F0B3CFDF91CF912D
:101CA0001F910F91FF90EF90DF90089587FD03C083
:101CB00080938C0A02C010928C0A683018F46093EA
:101CC0008D0A089510928D0A08958BB900000000C6
:101CD0000000000000000000289A86E08A95F1F7D5
:101CE00000C0289886E08A95F1F700C00895809199
:101CF000D30590E0FC01EE0FFF1FE80FF91FE2593A
:101D0000F54F8181882309F49BC08091D30590E031
:101D1000FC01EE0FFF1FE80FF91FE259F54F80811C
:101D2000882319F08130D9F40DC0409A4198000001
:101D300000000000000000000000000000000000A3
:101D4000000019C0419A4098000000000000000007
:101D50000000000000000000000000000CC08091A6
:101D6000D30590E0FC01EE0FFF1FE80FF91FE259C9
:101D7000F54F118208954698000000000000000011
:101D80000000000000000000000000004798000074
:101D90000000000000000000000000000000000043
:101DA00000008091D30590E0FC01EE0FFF1FE80FCB
:101DB000F91FE259F54F81818230F1F0833079F0DB
:101DC000813041F58091D30590E0FC01EE0FFF1FBB
:101DD000E80FF91FE259F54F8281806419C08091A4
:101DE000D30590E0FC01EE0FFF1FE80FF91FE25949
:101DF000F54F8281806C0CC08091D30590E0FC018E
:101E0000EE0FFF1FE80FF91FE259F54F8281886B33
:101E10000E94650E8091D30590E0FC01EE0FFF1F3C
:101E2000E80FF91FE259F54F11828091D3058F5FBA
:101E30008093D3058091D3058A3010F01092D3059A
:101E400008951AB846980000000000000000000045
:101E500000000000000000000000479A00000000A1
:101E60000000000000000000000000000000000072
:101E7000000000000000000000000000289A86E03A
:101E80008A95F1F700C089B1289896E09A95F1F704
:101E900000C09FEF9AB980780895409A4198000059
:101EA0000000000000000000000000000000000032
:101EB00000000E94210F0895419A40980000000000
:101EC0000000000000000000000000000000000012
:101ED0000E94210F08950E944D0F8823E1F70E9470
:101EE0005C0F8823C1F708950E946B0F409A419AB6
:101EF00000000000000000000000000000000000E2
:101F000000000000469800000000000000000000F3
:101F100000000000000000000000479800000000E2
:101F200000000000000000000000000000000000B1
:101F30008EE30E94650E089529988FE79AE1A6E046
:101F400081509040A040E1F700C00000299A1AB8E3
:101F5000409A4198000000000000000000000000CE
:101F60000000000000000000469800000000000093
:101F70000000000000000000000000000000479A80
:101F80000000000000000000000000000000000051
:101F900000000000289A96E09A95F1F700C089B1F8
:101FA0002898A6E0AA95F1F700C0419A4098000051
:101FB0000000000000000000000000000000000021
:101FC0000000469800000000000000000000000033
:101FD0000000000000000000479A00000000000020
:101FE0000000000000000000000000000000289A2F
:101FF000B6E0BA95F1F700C099B1289826E02A9585
:10200000F1F700C0892B84FDA3CF8FEF8AB90E941E
:102010006B0F409A419A0000000000000000000091
:1020200000000000000000000000469800000000D2
:1020300000000000000000000000000000000000A0
:1020400047980000000000000000000000000000B1
:102050000000000000008FE30E94650E87E893E116
:102060000197F1F700C000000E946B0F409A419A5F
:102070000000000000000000000000000000000060
:102080000000000046980000000000000000000072
:102090000000000000000000000047980000000061
:1020A0000000000000000000000000000000000030
:1020B00080EC0E94650EA7E8B3E11197F1F700C02C
:1020C00000000E946B0F409A419A0000000000003F
:1020D0000000000000000000000000000000469822
:1020E00000000000000000000000000000000000F0
:1020F0000000000047980000000000000000000001
:102100000000000000000000000080E40E94650E56
:1021100087E893E10197F1F700C000000E946B0F80
:10212000409A419A000000000000000000000000FA
:1021300000000000000000004698000000000000C1
:1021400000000000000000000000000000004798B0
:10215000000000000000000000000000000000007F
:102160000000000088EB0E94650EA7E8B3E111971C
:10217000F1F700C000004098419800000000000006
:1021800000000000000000000000000000001092AD
:102190006D0A1092D2051092D305EFE6FAE0108294
:1021A0003396BAE0ED38FB07D1F70895CF93DF936C
:1021B000C0E0D0E08091D30590E0FC01EE0FFF1F5E
:1021C000E80FF91FE259F54F8181882309F42FC0E8
:1021D0008091D30590E0FC01EE0FFF1FE80FF91F7F
:1021E000E259F54F8081882369F4409A41980000B4
:1021F00000000000000000000000000000000000DF
:1022000000000CC0419A409800000000000000004F
:102210000000000000000000000000000E94210FEC
:102220002F96882309F0DFC00E94770EDCC08091D2
:10223000D405882309F066C080916D0A80FD04C032
:1022400081E08093D405D3C00E944D0F882309F00C
:1022500067C0409A419800000000000000000000A4
:1022600000000000000000000000469A000000008E
:10227000000000000000000000000000000000005E
:10228000479800000000000000000000000000006F
:10229000000000000000E091D605F0E08091D50537
:1022A000B3E0EE0FFF1FBA95E1F7E80FF11DE35918
:1022B000F94F80810E94650E64968091D6058F5FEC
:1022C0008093D605803408F48EC01092D605809194
:1022D000D5058F5F8093D505883090F01092D50595
:1022E00081E08093D40580916D0A84FF04C08091C1
:1022F0006D0A8F7E03C080916D0A8E7F80936D0A78
:1023000080E068C0813009F06CC080916D0A81FD69
:1023100003C01092D4056BC00E945C0F882311F09B
:102320002F9661C0419A4098000000000000000014
:10233000000000000000000000000000469A0000BD
:10234000000000000000000000000000000000008D
:10235000000047980000000000000000000000009E
:102360000000000000000000E091D605F0E0E05C15
:10237000FF4F8091D505A3E0EE0FFF1FAA95E1F76F
:10238000E80FF11DE359F94F80810E94650E6496B4
:102390008091D6058F5F8093D605803420F110920E
:1023A000D6058091D5058F5F8093D505883088F05C
:1023B0001092D5051092D40580916D0A85FF04C056
:1023C00080916D0A8F7D03C080916D0A8D7F80930F
:1023D0006D0A81E062E04091D5050E94450D259689
:1023E00002C01092D405C233D10508F4E3CEDF91C8
:1023F000CF91089580916D0A90916D0A92708170CD
:10240000892B0895EF92FF921F93DF93CF930F9242
:10241000CDB7DEB789830E94C10C8981E82EFF24E5
:1024200010E080918C0A90E08A3791053CF01F5FA4
:10243000183080F480E0612F0E94560E8E2D60E0EF
:102440000E94A30D0894E11CF11C20E0E21621E09B
:10245000F20639F70F90CF91DF911F91FF90EF9027
:102460000895CF93DF9320E430E040E050E0A0E611
:10247000B0E015C0FC01E40FF51FEF55F74FE491F4
:10248000EB01C80FD91FC359D94FE8830196883093
:10249000910581F7485F5F4F2150304059F080E04F
:1024A00090E0BD01621B730BE3E0660F771FEA95B6
:1024B000E1F7E0CF0E940E0D02C00E94D61080917D
:1024C0006D0A80FDFACF80916D0A81FDF6CFDF9114
:1024D000CF91089580E063E040E00E94450D81E0E7
:1024E00063E040E00E94450D089540E090E0292F10
:1024F0002F7021F42D982F9A2F9812C0242F30E09E
:10250000F901EE0FFF1FE20FF31FE257F54F208195
:10251000821710F42D9A01C02D982F9A2F984F5F93
:102520009F5F903421F72C9A00000000000000000B
:102530002C98089540E090E0292F2F7021F42D98D9
:102540002F9A2F9812C0242F30E0F901EE0FFF1FB1
:10255000E20FF31FE257F54F2181821710F42D9AF5
:1025600001C02D982F9A2F984F5F9F5F903421F7CD
:102570002C9A00000000000000002C98089540E014
:1025800090E0292F2F7021F42D982F9A2F9812C0A8
:10259000242F30E0F901EE0FFF1FE20FF31FE25787
:1025A000F54F2281821710F42D9A01C02D982F9A91
:1025B0002F984F5F9F5F903421F72C9A0000000006
:1025C000000000002C98089581E08093E70B809331
:1025D000E80B8093E90B82E080937F0B8093800B64
:1025E0001092810B8AEE9BE09093790B8093780B8D
:1025F0008DE59BE090935E0C80935D0C8CEC9BE0F2
:102600009093210C8093200C20E030E0C901880FCA
:10261000991F820F931FFC01E651F44F1082118223
:102620001282FC01E35AF44F108211821282FC01E3
:10263000E453F44F108211821282FC01EB5FF34FDE
:10264000108211821282FC01EF54F44F1082118229
:102650001282FC01E457F44F108211821282FC01B5
:10266000EE5BF44F108211821282FC01EE5DF34F9B
:10267000108211821282FC01E35CF34F10821182FE
:1026800012822F5F3F4F2930310509F0BFCF80E024
:1026900090E0FC01EE0FFF1FE80FF91FE257F54F26
:1026A00010821182128201968C33910591F78091EC
:1026B000D70581608093D7050895FF920F931F93EC
:1026C000CF93DF93FB012381253010F024E0238397
:1026D0002481253010F024E0248344E02381421B30
:1026E000F48024E0F20EDC011C962081EC012C87A2
:1026F000218111962C931197228112962C93129777
:102700008C0122E030E0822F8D5FF81698F08081F6
:1027100090E0B9010E94DD256F87818190E0B901C9
:102720000E94DD25688B828190E0B9010E94DD2541
:10273000698B03C01F86188A198A2F5F3F4F239623
:102740002630310501F724E030E0FF24F416A8F02C
:10275000808190E0B9010E94DD25D8016C938181D0
:1027600090E0B9010E94DD25E8016983828190E053
:10277000B9010E94DD256A8307C0D8011C92119619
:102780001C92119712961C92F394215030400D5FC9
:102790001F4FBF2DB430D1F6DF91CF911F910F9114
:1027A000FF900895EF92FF920F931F936091780B23
:1027B0007091790B40915D0C50915E0C2091200C32
:1027C0003091210C80E090E0FB01E80FF91F1082AE
:1027D00011821282FA01E80FF91F1082118212820F
:1027E000F901E80FF91F10821182128203968B31D2
:1027F000910551F70AE0F02EF0927A0B10927B0BC4
:1028000010927C0B10927D0B10927E0B1092820B1B
:10281000F092830B1092840B01E00093850B0093E0
:10282000860B1092AC0B1092AD0B1FE0E12EE092E4
:10283000AE0B12E01093AF0B1093B00B8AEE9BE03F
:102840006AE77BE00E945D138DE59BE062E87BE038
:102850000E945D138CEC9BE06CEA7BE00E945D13B0
:10286000F092870B1092880B1092890B10928A0BB2
:1028700010928B0B1092580CF092590C10925A0C2B
:1028800000935B0C00935C0C1092A70B1092A80BAA
:10289000E092A90B1093AA0B1093AB0B81EB9BE07A
:1028A00067E87BE00E945D138CE89BE068E57CE0D4
:1028B0000E945D1385E09CE067EA7BE00E945D1367
:1028C0001F910F91FF90EF9008958AEE9BE06AE7C9
:1028D0007BE00E945D138DE59BE062E87BE00E9457
:1028E0005D138CEC9BE06CEA7BE00E945D1381EB56
:1028F0009BE067E87BE00E945D138CE89BE068E565
:102900007CE00E945D1385E09CE067EA7BE00E942A
:102910005D1308959091D7059E7F9093D705909170
:10292000D7059D7F9093D7059091D7059B7F909376
:10293000D705813019F0823049F514C08091D70550
:1029400082608093D70581EB9BE09093790B809315
:10295000780B8CE89BE090935E0C80935D0C85E097
:102960009CE027C08091D70584608093D70582E4DE
:102970009BE09093790B8093780B82E29CE090939C
:102980005E0C80935D0C8DE39CE013C08091D705B5
:1029900081608093D7058AEE9BE09093790B8093BA
:1029A000780B8DE59BE090935E0C80935D0C8CEC36
:1029B0009BE09093210C8093200C08958091D70583
:1029C00080FD09C08091D70581FD07C08091D705A2
:1029D00082FD05C0089580E0089581E0089582E0B9
:1029E00008958F929F92BF92CF92DF92EF92FF92C3
:1029F0000F931F93CF93DF93809169068C3008F07B
:102A00002AC180916A06209169069CE3299FE00112
:102A10001124C80FD11D88249924E0EDF2E094011F
:102A2000220F331F280D391D9AEEE92E9BE0F92E57
:102A3000E20EF31ED7016C9189010F54144FD80197
:102A40008C914C91681B772767FD70956C9FC00136
:102A50006D9F900D7C9F900D1124BF010E94DD257C
:102A6000460F82E4C82E8BE0D82EC20ED31ED601AC
:102A70004C93D70111964C91D80111968C911197D6
:102A80001196BC90481B552747FD50954C9FC0019F
:102A90004D9F900D5C9F900D1124BF010E94DD257C
:102AA000B60ED6011196BC92D70112966C91D80140
:102AB00012968C91129712964C91681B772767FD9E
:102AC00070956C9FC0016D9F900D7C9F900D11249F
:102AD000BF010E94DD25460FD60112964C931DE5DD
:102AE000E12E1BE0F12EE20EF31ED7016C9189015D
:102AF0000457144FD8018C914C91681B772767FDC0
:102B000070956C9FC0016D9F900D7C9F900D11245E
:102B1000BF010E94DD25460FB2E2CB2EBCE0DB2ECA
:102B2000C20ED31ED6014C93D70111964C91D801F9
:102B300011968C9111971196BC90481B552747FD13
:102B400050954C9FC0014D9F900D5C9F900D11249E
:102B5000BF010E94DD25B60ED6011196BC92D701A9
:102B600012966C91D80112968C91129712964C91F4
:102B7000681B772767FD70956C9FC0016D9F900D56
:102B80007C9F900D1124BF010E94DD25460FD601C8
:102B900012964C93ACECEA2EABE0FA2EE20EF31E4A
:102BA000D7016C9189010B5F134FD8018C914C9127
:102BB000681B772767FD70956C9FC0016D9F900D16
:102BC0007C9F900D1124BF010E94DD25460F235CE0
:102BD000334FD9014C93D70111966C91D8011196BE
:102BE0008C91119711964C91681B772767FD709512
:102BF0006C9FC0016D9F900D7C9F900D1124BF01B3
:102C00000E94DD25460FD90111964C93D7011296EB
:102C10004C91D80112968C91129712960C91481BE8
:102C2000552747FD50954C9FC0014D9F900D5C9FCF
:102C3000900D1124BF010E94DD25060FD9011296C7
:102C40000C9312970894811C911CB9E08B16910487
:102C500009F0E5CE27C120916A069091690630E01F
:102C6000205D32408CE3989FC0011124280F391F4A
:102C700088249924E0EDF2E0E401CC0FDD1FC80DBB
:102C8000D91D61EBE62E6BE0F62EEC0EFD1ED70192
:102C90006C918E010651144FD8018C914C91681B98
:102CA000772767FD7095629FC001639F900D729FAB
:102CB000900D1124BF010E94DD25460F52E4C52E60
:102CC0005BE0D52ECC0EDD1ED6014C93D7011196BC
:102CD0004C91D80111968C9111971196BC90481B7C
:102CE000552747FD5095429FC001439F900D529F2D
:102CF000900D1124BF010E94DD25B60ED60111965C
:102D0000BC92D70112966C91D80112968C911297B1
:102D100012964C91681B772767FD7095629FC001E2
:102D2000639F900D729F900D1124BF010E94DD25BD
:102D3000460FD60112964C934CE8E42E4BE0F42E4D
:102D4000EC0EFD1ED7016C918E01035A144FD80171
:102D50008C914C91681B772767FD7095629FC0012D
:102D6000639F900D729F900D1124BF010E94DD257D
:102D7000460F92E2C92E9CE0D92ECC0EDD1ED60164
:102D80004C93D70111964C91D80111968C911197C3
:102D90001196BC90481B552747FD5095429FC00196
:102DA000439F900D529F900D1124BF010E94DD257D
:102DB000B60ED6011196BC92D70112966C91D8012D
:102DC00012968C91129712964C91681B772767FD8B
:102DD0007095629FC001639F900D729F900D1124AA
:102DE000BF010E94DD25460FD60112964C9385E067
:102DF000E82E8CE0F82EEC0EFD1ED7016C918E01B2
:102E00000453144FD8018C914C91681B772767FDB0
:102E10007095629FC001639F900D729F900D112469
:102E2000BF010E94DD25460FC35CD34F4883D70105
:102E300011966C91D80111968C91119711964C9125
:102E4000681B772767FD7095629FC001639F900D97
:102E5000729F900D1124BF010E94DD25460F49830A
:102E6000D70112964C91D80112968C911297129616
:102E70000C911297481B552747FD5095429FC00162
:102E8000439F900D529F900D1124BF010E94DD259C
:102E9000060F0A830894811C911CB9E08B169104DB
:102EA00009F0EACEDF91CF911F910F91FF90EF9043
:102EB000DF90CF90BF909F908F900895FF920F93D7
:102EC0001F93CF93DF93262F382F330F330F8C3080
:102ED00018F0380F3C5301C0380F822F6CE00E946D
:102EE000BD256CEFF62EF40E9F2D9C3318F058E3A1
:102EF000F52EF40E022F04500C3308F0045C182F4A
:102F00001450130F1C3308F0145C20E030E0AFE0E5
:102F100055E0822F6A2F0E94BD25992381F480916C
:102F20007F0BF901EE0FFF1FE20FF31FE257F54F82
:102F300080838091800B81838091810B15C0822FCB
:102F4000652F0E94BD25F901EE0FFF1F992371F433
:102F50008091E70BE20FF31FE257F54F80838091DA
:102F6000E80B81838091E90B828307C0E20FF31F96
:102F7000E257F54F1082118212822F5F3F4F2C33A0
:102F8000310539F6A091200CB091210C60915D0CB7
:102F900070915E0C4091780B5091790B20E030E0FD
:102FA000812F90E0FC01EE0FFF1FE80FF91FE257A1
:102FB000F54F9081ED01C20FD31F8881892B80834B
:102FC00091818981892B818392818A81892B828356
:102FD000802F90E0FC01EE0FFF1FE80FF91FE25772
:102FE000F54F9081EB01C20FD31F8881892B80831D
:102FF00091818981892B818392818A81892B828326
:103000008F2D90E0FC01EE0FFF1FE80FF91FE25734
:10301000F54F9081EA01C20FD31F8881892B8083ED
:1030200091818981892B818392818A81892B8283F5
:103030001F5F1C3309F410E00F5F0C3309F400E04C
:10304000F3948F2D8C3309F4FF242D5F3F4F2B31E8
:10305000310509F0A5CFDF91CF911F910F91FF901E
:10306000089510920E031092720C1092690C109237
:10307000680C0895FF920F931F93CF93DF93EC0199
:103080001881187F0981812F90E00896202F30E069
:103090008217930714F4012F085F0E94DB0CFF24B2
:1030A0001CC080E06F2D0E94560E28818A819B8172
:1030B000121741F44EE0149F90011124820F931FC8
:1030C00061E007C04EE0149F90011124820F931F0E
:1030D00060E00E94DD0D1F5FF394101710F30E9453
:1030E0000E0DDF91CF911F910F91FF9008951092D7
:1030F0005F0C10920E0381E08093720C8EE093E0DF
:103100009093690C8093680C1092600C0E94F20CF2
:10311000E091720CF0E0EE0FFF1FEA59F34F80814F
:1031200091810E943A1808950F931F93DF93CF93D4
:1031300000D00F92CDB7DEB782E463E00E94560E56
:1031400000D000D000D0EDB7FEB731968E010F5FF2
:103150001F4FADB7BEB712961C930E9311978EE119
:1031600091E0938382838091610C848315820E9415
:10317000F0258DB79EB706960FB6F8949EBF0FBE8A
:103180008DBF8091670C882319F4C80161E002C0EB
:10319000C80160E00E94DD0D8AE360E00E94A30D9B
:1031A00000D000D000D0EDB7FEB731968E010F5F92
:1031B0001F4FADB7BEB712961C930E9311978EE1B9
:1031C00091E0938382838091620C848315820E94B4
:1031D000F0258DB79EB706960FB6F8949EBF0FBE2A
:1031E0008DBF8091670C813019F4C80161E002C085
:1031F000C80160E00E94DD0D8AE360E00E94A30D3B
:1032000000D000D000D0EDB7FEB731968E010F5F31
:103210001F4FADB7BEB712961C930E9311978EE158
:1032200091E0938382838091630C848315820E9452
:10323000F0258DB79EB706960FB6F8949EBF0FBEC9
:103240008DBF8091670C823019F4C80161E002C023
:10325000C80160E00E94DD0D0E94370D0F900F90B5
:103260000F90CF91DF911F910F9108950F931F93AE
:10327000DF93CF93CDB7DEB729970FB6F894DEBFB3
:103280000FBECDBF9C018DB79EB70A970FB6F894BD
:103290009EBF0FBE8DBFEDB7FEB731968E010F5F9B
:1032A0001F4FADB7BEB712961C930E93119784E2D1
:1032B00091E093838283D9018C9184831582119646
:1032C0008C9111978683178212968C918087118634
:1032D0000E94F0258DB79EB70A960FB6F8949EBF50
:1032E0000FBE8DBF82E463E00E94560EC80160E00D
:1032F0000E94DD0D29960FB6F894DEBF0FBECDBF3C
:10330000CF91DF911F910F910895DF92EF92FF927D
:103310000F931F93DF93CF93CDB7DEB72B970FB6E5
:10332000F894DEBF0FBECDBFE091720CA091720C7D
:10333000B0E0AA0FBB1FAA59B34F0D90BC91A02DAE
:103340002C91F0E0EE0FFF1FEA59F34F0190F0814E
:10335000E02D822F90E09C01220F331FC90143E032
:10336000880F991F4A95E1F7821B930B0280F38126
:10337000E02DE80FF91F04851585E090670C80E4C7
:1033800061E00E94560E00D000D000D0EDB7FEB72D
:103390003196CE010196ADB7BEB712969C938E932F
:1033A000119784E391E093838283D8018C91848385
:1033B00015820E94F0258DB79EB706960FB6F89439
:1033C0009EBF0FBE8DBF61E0E11060E07E010894FA
:1033D000E11CF11CC7010E94DD0DD090670C80E458
:1033E00062E00E94560EADB7BEB718970FB6F894BC
:1033F000BEBF0FBEADBFEDB7FEB731961296FC92C1
:10340000EE9211978FE391E09383828381E890E0BD
:1034100095838483D80111968C91868317820E94AC
:10342000F0258DB79EB708960FB6F8949EBF0FBED5
:103430008DBF61E09D2D913009F060E07E01089420
:10344000E11CF11CC7010E94DD0DD090670C80E4E7
:1034500063E00E94560E00D000D000D0EDB7FEB75A
:103460003196ADB7BEB71296FC92EE9211978CE4EE
:1034700091E093838283D80112968C918483158284
:103480000E94F0258DB79EB706960FB6F8949EBFA2
:103490000FBE8DBF61E09D2D923009F060E0CE013E
:1034A00001960E94DD0D0E94370D2B960FB6F89401
:1034B000DEBF0FBECDBFCF91DF911F910F91FF9067
:1034C000EF90DF900895EF92FF920F931F93DF9399
:1034D000CF93CDB7DEB72B970FB6F894DEBF0FBEF4
:1034E000CDBF7C0180E461E00E94560E00D000D088
:1034F00000D0EDB7FEB731968E010F5F1F4FADB70D
:10350000BEB712961C930E93119784E391E09383B8
:103510008283D7018C91848315820E94F0258DB718
:103520009EB706960FB6F8949EBF0FBE8DBFC8011A
:1035300060E00E94DD0D80E462E00E94560EADB7AF
:10354000BEB718970FB6F894BEBF0FBEADBFEDB7AC
:10355000FEB7319612961C930E9311978FE391E06C
:103560009383828381E890E095838483D7011196C9
:103570008C91868317820E94F0258DB79EB708969E
:103580000FB6F8949EBF0FBE8DBFC80160E00E94C9
:10359000DD0D80E463E00E94560E00D000D000D024
:1035A000EDB7FEB73196ADB7BEB712961C930E932A
:1035B00011978CE491E093838283D70112968C91CA
:1035C000848315820E94F0258DB79EB706960FB6AC
:1035D000F8949EBF0FBE8DBFC80160E00E94DD0D54
:1035E0002B960FB6F894DEBF0FBECDBFCF91DF9103
:1035F0001F910F91FF90EF900895EF92FF920F931C
:103600001F93DF93CF93CDB7DEB72B970FB6F89408
:10361000DEBF0FBECDBF7C0180E461E00E94560E8C
:1036200000D000D000D0EDB7FEB731968E010F5F0D
:103630001F4FADB7BEB712961C930E93119784E33C
:1036400091E093838283D7018C91848315820E94B9
:10365000F0258DB79EB706960FB6F8949EBF0FBEA5
:103660008DBFC80160E00E94DD0D80E462E00E9431
:10367000560EADB7BEB718970FB6F894BEBF0FBEC3
:10368000ADBFEDB7FEB7319612961C930E9311970E
:103690008FE391E09383828381E890E09583848334
:1036A000D70111968C91868317820E94F0258DB7E1
:1036B0009EB708960FB6F8949EBF0FBE8DBFC80187
:1036C00060E00E94DD0D80E463E00E94560E00D0B1
:1036D00000D000D0EDB7FEB73196ADB7BEB71296A9
:1036E0001C930E9311978CE491E093838283D7010E
:1036F00012968C91848315820E94F0258DB79EB717
:1037000006960FB6F8949EBF0FBE8DBFC80160E04D
:103710000E94DD0D80E464E00E94560E00D000D0CF
:1037200000D0EDB7FEB73196ADB7BEB712961C9379
:103730000E93119788E591E093838283D7011496C5
:103740008C91848315820E94F0258DB79EB70696D2
:103750000FB6F8949EBF0FBE8DBFC80160E00E94F7
:10376000DD0D80E465E00E94560E00D000D000D050
:10377000EDB7FEB73196ADB7BEB712961C930E9358
:10378000119783E691E093838283D70113968C91FE
:10379000848315820E94F0258DB79EB706960FB6DA
:1037A000F8949EBF0FBE8DBFC80160E00E94DD0D82
:1037B0002B960FB6F894DEBF0FBECDBFCF91DF9131
:1037C0001F910F91FF90EF900895DF92EF92FF927B
:1037D0000F931F93DF93CF93CDB7DEB72B970FB621
:1037E000F894DEBF0FBECDBFE091720CA091720CB9
:1037F000B0E0AA0FBB1FAA59B34F0D90BC91A02DEA
:103800002C91F0E0EE0FFF1FEA59F34F0190F08189
:10381000E02D822F90E09C01220F331FC901A3E00D
:10382000880F991FAA95E1F7821B930B0280F38101
:10383000E02DE80FF91F04851585E090670C80E402
:1038400061E00E94560E00D000D000D0EDB7FEB768
:103850003196CE010196ADB7BEB712969C938E936A
:10386000119784E391E093838283D8018C918483C0
:1038700015820E94F0258DB79EB706960FB6F89474
:103880009EBF0FBE8DBF61E0E11060E07E01089435
:10389000E11CF11CC7010E94DD0DD090670C80E493
:1038A00062E00E94560EADB7BEB718970FB6F894F7
:1038B000BEBF0FBEADBFEDB7FEB731961296FC92FC
:1038C000EE9211978FE391E09383828381E890E0F9
:1038D00095838483D80111968C91868317820E94E8
:1038E000F0258DB79EB708960FB6F8949EBF0FBE11
:1038F0008DBF61E09D2D913009F060E07E0108945C
:10390000E11CF11CC7010E94DD0DD090670C80E422
:1039100063E00E94560E00D000D000D0EDB7FEB795
:103920003196ADB7BEB71296FC92EE9211978CE429
:1039300091E093838283D80112968C9184831582BF
:103940000E94F0258DB79EB706960FB6F8949EBFDD
:103950000FBE8DBF61E09D2D923009F060E07E01C9
:103960000894E11CF11CC7010E94DD0DD090670C8A
:1039700080E464E00E94560E00D000D000D0EDB785
:10398000FEB73196ADB7BEB71296FC92EE92119784
:1039900088E591E093838283D80114968C91848387
:1039A00015820E94F0258DB79EB706960FB6F89443
:1039B0009EBF0FBE8DBF61E09D2D933009F060E08A
:1039C0007E010894E11CF11CC7010E94DD0DD0901E
:1039D000670C80E465E00E94560E00D000D000D055
:1039E000EDB7FEB73196ADB7BEB71296FC92EE9228
:1039F000119783E691E093838283D80113968C918B
:103A0000848315820E94F0258DB79EB706960FB667
:103A1000F8949EBF0FBE8DBF61E09D2D943009F0DC
:103A200060E0CE0101960E94DD0D0E94370D2B96BD
:103A30000FB6F894DEBF0FBECDBFCF91DF911F91BF
:103A40000F91FF90EF90DF9008958091600C882394
:103A500001F58091720C81508093720C8091720CF0
:103A6000882309F0B1C080916C068D7F80936C062D
:103A70000E94C10C0E940E0D80916C06886080939C
:103A80006C0680915F0C882309F4CAC00E94ED0681
:103A90000895813059F48091670C882309F48EC011
:103AA00081508093670C0E94941808958230F1F53C
:103AB0008091670C8823A1F5E091720CA091720CA3
:103AC000B0E0AA0FBB1FAA59B34F0D90BC91A02D17
:103AD0002C91F0E0EE0FFF1FEA59F34F0190F081B7
:103AE000E02D822F90E09C01220F331FC901A3E03B
:103AF000880F991FAA95E1F7821B930B0280F3812F
:103B0000E02DE80FF91F0484F585E02D8091610C0C
:103B100080838091620C81838091630C82834EC08C
:103B200081508093670C0E9485190895833009F0B5
:103B30005DC08091670C882309F052C0E091720C3F
:103B4000A091720CB0E0AA0FBB1FAA59B34F0D9001
:103B5000BC91A02D2C91F0E0EE0FFF1FEA59F34F1E
:103B60000190F081E02D822F90E09C01220F331F05
:103B7000C90143E0880F991F4A95E1F7821B930B17
:103B80000280F381E02DE80FF91F0484F585E02D14
:103B90008091610C80838091620C81838091630CA1
:103BA00082838091640C83838091650C84838091EF
:103BB000660C0E948A1481E00E9465141092600CC9
:103BC0000E94F20C0E94370DE091720CF0E0EE0FB3
:103BD000FF1FEA59F34F808191810E943A1808959E
:103BE00081508093670C0E94E51B0895843071F426
:103BF0000E94CC24882319F00E94C62408951092B4
:103C0000600C0E94F20C0E94370D0895853041F43B
:103C10000E94C6241092600C0E94F20C0E94370D84
:103C20000895882321F480916C0680710895813075
:103C300091F480916C0684FF07C080916C068F7EA2
:103C400080936C0680E0089580916C06806180937B
:103C50006C0681E0089508951F9380E00E94111E74
:103C6000182F81E461E00E94560E8FE691E060E03B
:103C70000E94DD0D81E462E00E94560E89E791E02A
:103C800060E00E94DD0D81E463E00E94560E112386
:103C900019F082E891E002C089E891E060E00E94BA
:103CA000DD0D1F9108950F931F93CF93DF93109114
:103CB000670C187F0E94F20C00E0CDE0D0E023C03A
:103CC00080E4602F0E94560E8091670C212F30E017
:103CD000181759F42C9FC0012D9F900D3C9F900DFB
:103CE000112483589A4F61E00AC02C9FC0012D9F78
:103CF000900D3C9F900D112483589A4F60E00E94D4
:103D0000DD0D1F5F0F5F1630D8F20E94370DDF9177
:103D1000CF911F910F910895882321F480916C0613
:103D2000807208958130A1F480935F0C80916C06BD
:103D300085FF07C080916C068F7D80936C0680E0C4
:103D4000089580916C06806280936C0681E00895EE
:103D500008951F9380E00E948C1E182F81E462E07A
:103D60000E94560E82E991E060E00E94DD0D81E440
:103D700063E00E94560E112319F082E891E002C020
:103D800089E891E060E00E94DD0D1F91089588238D
:103D900021F480916C06807408958130A1F48093A1
:103DA0005F0C80916C0686FF07C080916C068F7B4C
:103DB00080936C0680E0089580916C068064809307
:103DC0006C0681E0089508951F9380E00E94C71E4D
:103DD000182F81E462E00E94560E8AE991E060E0CB
:103DE0000E94DD0D81E463E00E94560E83EA91E0BB
:103DF00060E00E94DD0D81E464E00E94560E112314
:103E000019F082E891E002C089E891E060E00E9448
:103E1000DD0D1F91089581E462E00E94560E4091ED
:103E2000680650E02DE030E0429FC001439F900DB6
:103E3000529F900D112483589A4F60E00E94DD0D2F
:103E400008951F930E94DE14182F81E461E00E9400
:103E5000560E8AEA91E060E00E94DD0D81E462E0A6
:103E60000E94560E83EB91E060E00E94DD0D81E43C
:103E700063E00E94560E113041F0113018F01230FC
:103E800061F406C08CEB91E005C085EC91E002C0C6
:103E90008EEC91E060E00E94DD0D1F910895CF93BC
:103EA000DF93EC010E94F20C209771F18C859D85C7
:103EB000009751F12B85233019F40E94361922C046
:103EC000223019F40E94631A1DC0243019F40E9494
:103ED000FD1A18C0263019F40E942C1E13C0283079
:103EE00019F40E94A91E0EC02A3019F40E94E41E83
:103EF00009C0293019F40E940B1F04C02B3011F4A3
:103F00000E94211F0E94370DDF91CF91089580916B
:103F1000600C882309F054C0E091720CF0E0EE0FC1
:103F2000FF1FEA59F34F0190F081E02D2081E091CD
:103F3000720C30E0F0E0EE0FFF1FEA59F34F0190F2
:103F4000F081E02D818190E00197281739076CF40A
:103F5000E091720CF0E0EE0FFF1FEA59F34F019071
:103F6000F081E02D80818F5F8083E091720CF0E022
:103F7000EE0FFF1FEA59F34F808191810E943A189A
:103F8000E091720CA091720CB0E0AA0FBB1FAA596D
:103F9000B34F0D90BC91A02D9C91F0E0EE0FFF1F50
:103FA000EA59F34F0190F081E02D8EE0989FC00117
:103FB000112422813381820F931F0E944F1F089585
:103FC000813041F58091670C882351F48091610C18
:103FD000882311F487E101C081508093610C17C0E0
:103FE000813051F48091620C882311F48BE301C07D
:103FF00081508093620C0BC0823049F48091630C35
:10400000882311F48BE301C081508093630C0E94DC
:1040100094180895823009F046C0E091720CA09186
:10402000720CB0E0AA0FBB1FAA59B34F0D90BC9100
:10403000A02D2C91F0E0EE0FFF1FEA59F34F0190F5
:10404000F081E02D822F90E09C01220F331FC901E7
:10405000A3E0880F991FAA95E1F7821B930B0280BA
:10406000F381E02DE80FF91F0484F585E02D8091A0
:10407000670C882331F48081882391F081508083FC
:104080000FC0813031F48181882351F081508183C8
:1040900007C0823029F48281882311F08150828305
:1040A0000E9485190895833009F059C0E091720C7F
:1040B000A091720CB0E0AA0FBB1FAA59B34F0D908C
:1040C000BC91A02D2C91F0E0EE0FFF1FEA59F34FA9
:1040D0000190F081E02D822F90E09C01220F331F90
:1040E000C90143E0880F991F4A95E1F7821B930BA2
:1040F0000280F381E02DE80FF91F0484F585E02D9F
:104100008091670C882331F48081882311F18150DC
:1041100080831FC0813031F481818823D1F08150A8
:10412000818317C0823031F48281882391F08150DD
:1041300082830FC0833031F48481882351F0815011
:10414000848307C0843029F48381882311F081504F
:10415000838381E00E9465140E94E51B08958430EA
:1041600051F48091670C853018F48F5F8093670C51
:104170000E94531E0895853071F48091670C85303C
:1041800018F48F5F8093670C8091670C60E00E9449
:10419000AA240E94531E08958091600C882309F080
:1041A00045C0E091720CF0E0EE0FFF1FEA59F34FAB
:1041B0000190F081E02D8081882369F0E091720CFC
:1041C000F0E0EE0FFF1FEA59F34F0190F081E02D70
:1041D000808181508083E091720CF0E0EE0FFF1F30
:1041E000EA59F34F808191810E943A18E091720C54
:1041F000A091720CB0E0AA0FBB1FAA59B34F0D904B
:10420000BC91A02D9C91F0E0EE0FFF1FEA59F34FF7
:104210000190F081E02D8EE0989FC0011124228151
:104220003381820F931F0E944F1F0895813059F5EB
:104230008091670C882359F48091610C873119F4BF
:104240001092610C1DC08F5F8093610C19C081308A
:1042500059F48091620C8B3319F41092620C10C0E7
:104260008F5F8093620C0CC0823051F48091630C9C
:104270008B3319F41092630C03C08F5F8093630C2F
:104280000E9494180895823009F048C0E091720CA1
:10429000A091720CB0E0AA0FBB1FAA59B34F0D90AA
:1042A000BC91A02D2C91F0E0EE0FFF1FEA59F34FC7
:1042B0000190F081E02D822F90E09C01220F331FAE
:1042C000C90143E0880F991F4A95E1F7821B930BC0
:1042D0000280F381E02DE80FF91F0484F585E02DBD
:1042E0008091670C882329F480818F3010F48F5FD0
:1042F00080838091670C813029F481818F3010F4A4
:104300008F5F81838091670C823029F482818F30A6
:1043100010F48F5F82830E9485190895833009F01D
:1043200059C0E091720CA091720CB0E0AA0FBB1FB3
:10433000AA59B34F0D90BC91A02D2C91F0E0EE0F37
:10434000FF1FEA59F34F0190F081E02D822F90E09A
:104350009C01220F331FC901A3E0880F991FAA9562
:10436000E1F7821B930B0280F381E02DE80FF91F28
:104370000484F585E02D8091670C882331F48081D9
:104380008F3010F58F5F80831FC0813031F48181C1
:104390008F30D0F48F5F818317C0823031F48281F7
:1043A0008F3090F48F5F82830FC0833031F484812B
:1043B000843050F48F5F848307C0843029F4838174
:1043C000843010F48F5F838381E00E9465140E9423
:1043D000E51B0895843051F48091670C882319F00F
:1043E00081508093670C0E94531E0895853071F4AC
:1043F0008091670C882319F081508093670C80911D
:10440000670C60E00E94AA240E94531E08950E9437
:10441000DE14813039F0813018F0823041F404C06C
:1044200081E003C082E001C080E00E948A140E9403
:10443000F20C0E94211F0E94370D08950F931F93C5
:10444000CF93DF93E091720CF0E0EE0FFF1FEA597B
:10445000F34F0190F081E02D828193814081242FE0
:1044600030E0220F331FD90113E0AA0FBB1F1A95AA
:10447000E1F7A21BB30BA80FB91F1C962D913C911D
:104480001D972115310509F45BC24091600C44234E
:1044900009F0E4C14081242F30E0220F331FD901FD
:1044A00063E0AA0FBB1F6A95E1F7A21BB30BA80F2D
:1044B000B91F1B962C911B97213009F06FC04081CA
:1044C000242F30E0220F331FD90143E0AA0FBB1F76
:1044D0004A95E1F7A21BB30BA80FB91F1C962D91AB
:1044E0003C911D972115310509F42AC22091720CC7
:1044F0004081E22FF0E0EE0FFF1FE859F34F242F29
:1045000030E0220F331FD90113E0AA0FBB1F1A9509
:10451000E1F7A21BB30BA80FB91F1C968D919C91BC
:104520001D9791838083E091720CF0E0EE0FFF1FE6
:10453000E859F34F0190F081E02D10828091720CC8
:104540008F5F8093720CE091720CF0E0EE0FFF1F12
:10455000EA59F34F808191810E943A18E091720CE0
:10456000A091720CB0E0AA0FBB1FAA59B34F0D90D7
:10457000BC91A02D9C91F0E0EE0FFF1FEA59F34F84
:104580000190F081E02D8EE0989FC00111242281DE
:104590003381820F931F0E944F1FD2C14081242F6D
:1045A00030E0220F331FD90103E0AA0FBB1F0A9589
:1045B000E1F7A21BB30BA80FB91F1B962C911B97F9
:1045C000233029F54081242F30E0220F331FF901D9
:1045D000B3E0EE0FFF1FBA95E1F7E21BF30BE80F14
:1045E000F91F0484F585E02D1092670CA1E6BCE06C
:1045F00080818093610C818111968C9311978281C7
:1046000012968C93129781E08093600C4EC140818A
:10461000242F30E0220F331FD90173E0AA0FBB1FF4
:104620007A95E1F7A21BB30BA80FB91F1B964C910B
:104630001B97423021F55081252F30E0220F331F88
:10464000F90153E0EE0FFF1F5A95E1F7E21BF30B60
:10465000E80FF91F0484F585E02D1092670CA1E6A0
:10466000BCE080818093610C818111968C931197BD
:10467000828112968C9312974093600C22C14081E4
:10468000242F30E0220F331FD90113E0AA0FBB1FE4
:104690001A95E1F7A21BB30BA80FB91F1B962C911B
:1046A0001B972430D1F54081242F30E0220F331F97
:1046B000F90163E0EE0FFF1F6A95E1F7E21BF30BD0
:1046C000E80FF91FC485D5851092670C01E61CE040
:1046D00088818093610C8981F80181838A8182833A
:1046E0008B8183838C8184830E94DE14F80185830F
:1046F000FBE0CA37DF0741F08BE0C238D80721F072
:10470000EBE0CC3ADE0711F480E001C081E00E94CA
:104710008A1483E08093600CFAC04081242F30E03B
:10472000220F331FD90143E0AA0FBB1F4A95E1F7BF
:10473000A21BB30BA80FB91F1B962C911B972630F9
:1047400041F481E00E94111E0E94F20C0E942C1E76
:10475000F5C04081242F30E0220F331FD90113E030
:10476000AA0FBB1F1A95E1F7A21BB30BA80FB91F25
:104770001B962C911B97273021F41092670C84E034
:104780004FC04081242F30E0220F331FD90163E056
:10479000AA0FBB1F6A95E1F7A21BB30BA80FB91FA5
:1047A0001B962C911B97283041F481E00E948C1EAF
:1047B0000E94F20C0E94A91EC1C04081242F30E04B
:1047C000220F331FD90143E0AA0FBB1F4A95E1F71F
:1047D000A21BB30BA80FB91F1B962C911B972A3055
:1047E00041F481E00E94C71E0E94F20C0E94E41E68
:1047F000A5C04081242F30E0220F331FD90113E0E0
:10480000AA0FBB1F1A95E1F7A21BB30BA80FB91F84
:104810001B962C911B97293041F41092670C85E070
:104820008093600C0E94531E8BC04081242F30E087
:10483000220F331FF90173E0EE0FFF1F7A95E1F7A6
:10484000E21BF30BE80FF91F83858B3009F078C06A
:104850000E94072281E080935F0C72C0413041F5D5
:104860002091670C2230F1F45081252F30E0220F87
:10487000331FF90153E0EE0FFF1F5A95E1F7E21BDA
:10488000F30BE80FF91F0484F585E02D8091610C8E
:1048900080838091620C81838091630C828340933A
:1048A0005F0C22C02F5F2093670C0E94941848C0B1
:1048B000423051F48091670C823099F08F5F809381
:1048C000670C0E9485193CC0433021F58091670C2C
:1048D0008430D1F48091660C0E948A1481E00E9499
:1048E000651481E080935F0C1092600C0E94F20CC2
:1048F000E091720CF0E0EE0FFF1FEA59F34F808158
:1049000091810E943A181CC08F5F8093670C0E94AF
:10491000E51B16C0443031F48091670C60E00E94C2
:10492000AA240EC0453061F48091670C809368061C
:104930000E94C6241092600C0E94F20C0E94370D57
:10494000DF91CF911F910F9108951092750C1092E5
:10495000740C08958630C8F49091750C9160909312
:10496000750C129A8093740C1092760C1092730C42
:10497000662331F08091750C82608093750C0895E8
:104980008091750C8D7F8093750C08958091750CC6
:104990008E7F8093750C08958091750C81700895B9
:1049A0009091750C90FF03C00E94C624089560E0AA
:1049B0000E94AA2408958091750C80FFDDC020918B
:1049C000DA053091DB052F5F3F4F3093DB052093F5
:1049D000DA058091D8059091D905009729F00197C3
:1049E0009093D9058093D8054091740C8091760CF2
:1049F00050E0EDE0F0E04E9FD0014F9FB00D5E9F84
:104A0000B00D1124A358BA4F90E0880F991F1B9640
:104A10000D90BC91A02DA80FB91FAC91B0E0AE5E77
:104A2000BC4F6C91C90170E00E94C925009729F51F
:104A30004091740C8091760C50E04E9FD0014F9FB6
:104A4000B00D5E9FB00D1124A358BA4F90E0880FAF
:104A5000991F1B96ED91FC911C97E80FF91F80811F
:104A6000843259F08091D8059091D905009729F4A6
:104A70002B9B02C02B9801C02B9AC90160E273E006
:104A80000E94C925009729F48091730C8F5F809351
:104A9000730C6091730C4091740C8091760C50E013
:104AA0002DE030E0429FF001439FF00D529FF00D4A
:104AB0001124E358FA4F90E0880F991F0384F4857E
:104AC000E02DE80FF91F8181681709F049C0809136
:104AD000760C8F5F8093760C4091740C8091760CED
:104AE00050E0429FF001439FF00D529FF00D1124C2
:104AF000E358FA4F90E0880F991F0384F485E02D66
:104B0000E80FF91F8081882311F54091740C809182
:104B1000760C50E0429FF001439FF00D529FF00D44
:104B20001124E358FA4F90E0880F991F0384F4850D
:104B3000E02DE80FF91F8181882349F48091750CDD
:104B400081FF03C01092760C02C00E94C6242B98ED
:104B50001092730C8AEF90E09093D9058093D8055A
:104B60008091DA059091DB0529E18030920721F4EC
:104B70001092DB051092DA050895991B79E004C0C4
:104B8000991F961708F0961B881F7A95C9F780958C
:104B90000895AA1BBB1B51E107C0AA1FBB1FA61784
:104BA000B70710F0A61BB70B881F991F5A95A9F7D6
:104BB00080959095BC01CD01089597FB092E07269D
:104BC0000AD077FD04D0E5DF06D000201AF47095F6
:104BD00061957F4F0895F6F7909581959F4F0895C1
:104BE000AEE0B0E0E6EFF5E20C94D0280D891E8926
:104BF00086E08C831A8309838FEF9FE79E838D83E2
:104C00009E01275E3F4FCE0101966F89788DA901E5
:104C10000E941326EF81F885E00FF11F10822E9677
:104C2000E4E00C94EC28ACE0B0E0E9E1F6E20C94AE
:104C3000C2286C011B018A01FC0117821682838144
:104C400081FFD1C12E010894411C511CF6019381B2
:104C5000F10193FD859193FF81911F01882309F450
:104C6000BEC1853239F493FD859193FF81911F0177
:104C7000853229F490E0B6010E943828E7CFEE246F
:104C8000FF2420E02032B0F48B3269F08C3228F41B
:104C9000803251F0833271F40BC08D3239F08033A1
:104CA00049F421602CC02260246029C0286027C0FC
:104CB000206125C027FD2CC0382F30533A3098F49E
:104CC00026FF08C08E2D880FE82EEE0CEE0CE80EA5
:104CD000E30E15C08F2D880FF82EFF0CFF0CF80E79
:104CE000F30E20620CC08E3221F426FD78C12064C0
:104CF00006C08C3611F4206802C0883649F4F101F0
:104D000093FD859193FF81911F01882309F0BACF0C
:104D1000982F9554933018F09052933028F40C5FEC
:104D20001F4FFFE3F9830DC0833631F0833771F0F5
:104D3000833509F060C022C0F801808189830E5F4D
:104D40001F4F420171E0A72EB12C16C062E0662E03
:104D5000712C600E711EF8018080918026FF03C0C7
:104D60006E2D70E002C06FEF7FEFC4012C870E94B0
:104D70002D285C0183012C852F7717C052E0652E0A
:104D8000712C600E711EF8018080918026FF03C097
:104D90006E2D70E002C06FEF7FEFC4012C870E9480
:104DA00022285C012C852068830123FD20C008C0D7
:104DB00080E290E0B6012C870E943828FA942C8576
:104DC0008F2D90E0A816B90698F311C0F40127FDC5
:104DD000859127FF81914F0190E0B6012C870E94B9
:104DE00038282C85F110FA940894A108B108A11470
:104DF000B10461F7F1C0843611F0893649F527FF17
:104E000008C0F80160817181828193810C5F1F4F1E
:104E100009C0F80160817181882777FD8095982FFE
:104E20000E5F1F4F4FE6B42EB22297FF09C0909538
:104E30008095709561957F4F8F4F9F4FF0E8BF2A07
:104E4000A2012AE030E00E946428782E741845C040
:104E5000853731F43FEEB32EB2222AE030E025C090
:104E600099EFB92EB2228F36C1F0803720F4883501
:104E700009F0B5C00DC0803721F0883709F0AFC008
:104E800002C020E1B22AB4FE0BC084E0B82A08C0F8
:104E9000B4FE09C0E6E0BE2A06C028E030E005C046
:104EA00020E130E002C020E132E0B7FE08C0F801A6
:104EB00060817181828193810C5F1F4F07C0F8016F
:104EC0006081718180E090E00E5F1F4FA2010E941F
:104ED0006428782E7418FFE7BF22B6FE0BC02EEFB1
:104EE000B2227E1438F4B4FE07C0B2FC05C08FEEC7
:104EF000B82202C0A72C01C0AE2C8B2D90E0B4FECE
:104F00000DC0FE01E70DF11D2081203319F4E9EEFB
:104F1000BE2209C0A394B2FE06C004C08678907079
:104F2000009709F0A3948B2C9924B3FC14C0B0FE15
:104F30000FC0AF1428F4E72CEF0CEA18AF2C08C010
:104F4000E72C06C080E290E0B6010E943828A394C6
:104F5000AF14C0F304C0AF1410F4FA1801C0FF245A
:104F600084FE0FC080E390E0B6010E94382882FEE4
:104F70001FC081FE03C088E590E010C088E790E084
:104F80000DC0C40186789070009791F081FC02C03A
:104F900080E201C08BE2B7FC8DE290E0B6010E9496
:104FA000382806C080E390E0B6010E943828EA94D1
:104FB0007E14C0F37A94F201E70DF11D808190E038
:104FC000B6010E9438287720A9F706C080E290E059
:104FD000B6010E943828FA94FF20C1F737CEF601B7
:104FE0002681378102C02FEF3FEFC9012C96E2E105
:104FF0000C94DE28DC01CB01FC01F999FECF06C040
:10500000F2BDE1BDF89A319600B40D924150504086
:10501000B8F70895DC01CB0103C02D910E9415283B
:1050200041505040D0F70895262FF999FECF1FBA6E
:1050300092BD81BD20BD0FB6F894FA9AF99A0FBEC1
:1050400001960895FC010590615070400110D8F759
:10505000809590958E0F9F1F0895FC0161507040C0
:1050600001900110D8F7809590958E0F9F1F08959D
:105070000F931F93CF93DF938C01EB018B8181FF03
:105080001BC082FF0DC02E813F818C819D8128171E
:10509000390764F4E881F9810193F983E88306C054
:1050A000E885F985802F0995009731F48E819F81DD
:1050B00001969F838E8302C00FEF1FEFC801DF911F
:1050C000CF911F910F910895FA01AA27283051F12D
:1050D000203181F1E8946F936E7F6E5F7F4F8F4F29
:1050E0009F4FAF4FB1E03ED0B4E03CD0670F781F88
:1050F000891F9A1FA11D680F791F8A1F911DA11D6D
:105100006A0F711D811D911DA11D20D009F46894A5
:105110003F912AE0269F11243019305D3193DEF64D
:10512000CF010895462F4770405D4193B3E00FD003
:10513000C9F7F6CF462F4F70405D4A3318F0495DEE
:1051400031FD4052419302D0A9F7EACFB4E0A695D1
:105150009795879577956795BA95C9F700976105F3
:10516000710508959B01AC010A2E06945795479549
:1051700037952795BA95C9F7620F731F841F951F3E
:10518000A01D08952F923F924F925F926F927F924F
:105190008F929F92AF92BF92CF92DF92EF92FF9247
:1051A0000F931F93CF93DF93CDB7DEB7CA1BDB0BF3
:1051B0000FB6F894DEBF0FBECDBF09942A88398898
:1051C00048885F846E847D848C849B84AA84B9849F
:1051D000C884DF80EE80FD800C811B81AA81B981AB
:1051E000CE0FD11D0FB6F894DEBF0FBECDBFED01BF
:0651F0000895F894FFCFC2
:1051F600253032693A253032690000253032692E71
:10520600253032692E253034690000010101253030
:1052160032690000253032693A253032693A253044
:1052260032690000526F743A202530326900004717
:105236007225636E3A20253032690000426C617532
:105246003A20253032690000566F723A20253032F6
:105256006900004E6163683A2025303269000041DA
:1052660062676C6569636800007065722044434636
:105276000000616B7469760000696E616B74697613
:1052860000005765636B6572000057696564657257
:105296002D0000686F6C656E0000416B7469766561
:1052A6007200005A65696765723A00005A65696757
:1052B60065723100005A65696765723200004661A1
:1052C6006465000045696E7374656C6C656E0003F9
:1052D60069064175746F2E2D444346000006010091
:1052E6000002D401416E2F417573000000000008D2
:1052F60001005A65697400000000000000036006A2
:105306005764682E000000000000000A0100536F79
:10531600756E640000000000000901000004F4013D
:105326005374756E6465000000000004AC0B4D6993
:105336006E757465000000000004820B53656B7582
:105346006E646500000000047A0B0003300253749B
:10535600756E6465000000000004A70B4D696E754C
:105366007465000000000004580C53656B756E648C
:10537600650000000004870B00035E0235657200BD
:105386000000000000000002E70B313565720000E6
:105396000000000000027F0B00028C025A6569744F
:1053A6000000000000000001F0015765636B6572A4
:1053B6000000000000012C025A6569676572000052
:1053C6000000000B01005A656967657220313200E2
:1053D60000015A025A65696765722032340000017D
:1053E60088024D61726B6572000000000001A80220
:1053F6004C69656465720000000000070100000743
:10540600AC02625C57534E4945423E3A3734312E20
:105416002C29272523211F1D1C1A181716151413AE
:105426001211100F0E0D00240413021102100210A7
:10543600021102240E0902130211021002100224A4
:105446000211020E02240210020904240A1002119B
:1054560002130610020C060E021002240409020EA4
:10546600021002110210020E0200001004100424A1
:10547600011502150224010E040E04240110021067
:105486000224011004100424011302130212041052
:10549600042401150214020E020E04240112041043
:1054A6000410041004240115041402170217021331
:1054B60002130212021202100600000C021002125F
:1054C600021502130410020E021504120212021231
:1054D600021304120212021202130415040C020C27
:1054E600020C020C0200001101110111021101242B
:1054F6000111011101110111011101110111011116
:105506000111012401110113011501170118011AD6
:10551600011C011D0818021D0817011802110A15A1
:105526000118011D0218021F021D061C041A01188B
:1055360001170418041D061D0218041D0C15021778
:105546000213021802130A17041304110210020EA2
:10555600020C0209020B020C0210021708000013CB
:10556600040E02100211021302110210020E020CA6
:10557600040C0210021304110210020E061002118E
:105586000413040E060C060C0C2402110415021852
:105596000417021502130610021304110210020E5C
:1055A600040E0210021104130410040C040C04244B
:1055B600040000240413041502180218021501132E
:1055C600010C011001130110011502130110010E47
:1055D6000110010C020E010F011001130115011338
:1055E60001180224011301150113011802180215EE
:1055F6000113010C01100113011001150213011012
:10560600010C01100113021301130117011A0117EE
:1056160002130424011301150113011802180118BD
:1056260001180218011801180218021501130411B5
:1056360002110211021102150118011A0118011BAB
:105646000118021A011C011B011C011A011C011F71
:10565600021A011C011F011C021A02130221011C5D
:105666000213011A02180218042404000053746974
:105676006C6C416C697665003703467574757261AA
:105686006D610000007B0353696D70736F6E73006C
:105696000000CB03412D5465616D0000000000F74A
:1056A6000354657472697320410000006F045961E8
:0C56B6006B6574792053617800C3040018
:00000001FF
